:020000040800F2
:10000000400B002045010008D3210008C31D000853
:10001000D1210008F9030008A12800080000000011
:10002000000000000000000000000000F7230008AE
:100030003304000800000000F5230008F92300083D
:100040005F0100085F0100085F0100085F01000810
:100050005F0100085F0100085F0100085F01000800
:100060005F0100085F010008350400085F01000817
:100070005F010008FD0300085F0100085F01000840
:100080005F0100085F0100085F0100085F010008D0
:100090005F0100085F0100085F0100083B040008E1
:1000A0005F0100085F0100085F0100085F010008B0
:1000B0005F0100085F0100085F0100085F010008A0
:1000C0005F0100085F0100085F0100085F01000890
:1000D0005F0100085F0100085F0100085128000867
:1000E0005F0100085F0100085F0100085F01000870
:1000F0005F0100085F0100085F0100085F01000860
:100100005F0100085F0100085F0100085F0100084F
:100110005F0100085F0100085F0100085F0100083F
:100120005F0100085F0100085F0100085F0100082F
:10013000DFF80CD000F0E6F800480047B9310008BD
:10014000400B00200648804706480047FEE7FEE7D0
:10015000FEE7FEE7FEE7FEE7FEE7FEE7FEE7FEE777
:100160006D24000831010008202A04DB203A21FA1E
:1001700002F00021704721FA02F3D040C2F12002C0
:10018000914008431946704740EA01039B0703D09A
:1001900009E008C9121F08C0042AFAD203E011F8C6
:1001A000013B00F8013B521EF9D27047D2B201E088
:1001B00000F8012B491EFBD270470022F6E710B56C
:1001C00013460A4604461946FFF7F0FF204610BDC5
:1001D00030B505462A460B4612F8010B13F8014BC1
:1001E00008B1A042F8D01CB1002802D06D1CF1E784
:1001F000284630BD421C10F8011B0029FBD1801A93
:100200007047034611F8012B00F8012B002AF9D1A1
:100210001846704730B505460020034600E05B1CD9
:10022000934205D2EC5CC85C201A01D1002CF6D1B7
:1002300030BD70B5064602F069FB046805460A2227
:100240000021304600F025F82C6070BD70B50646E0
:1002500002F05CFB046805460A220021304600F0EB
:1002600018F82C6070BD30B50B46014600202022E6
:10027000012409E021FA02F59D4205D303FA02F5B3
:10028000491B04FA02F52844151EA2F10102F1DC13
:1002900030BD2DE9F04791460F46804604460026C2
:1002A00014F8015B2DB100F03FF80068405DC00715
:1002B000F6D12B2D02D02D2D18D0641E4A4639467A
:1002C000204600F035F827B13968A14201D1C7F8BE
:1002D000008071054FF002040BD54042002803DD79
:1002E00002F014FB0460A007BDE8F08746F48066C6
:1002F000E4E70028F8DA02F009FB04606FF0004040
:10030000F2E70000064C074D06E0E06840F001030C
:1003100094E8070098471034AC42F6D3FFF70CFF7F
:10032000084A0008284A000800487047044A0008A4
:100330002DE9F05F82460078002715468B460AF1CA
:100340000104B946302801D09DB113E014F8010B27
:100350000127782803D0582801D045B10AE00DB113
:10036000102D07D10027102514F8010B02E00825F5
:1003700000E00A250026B0460EE005FB080005FB5C
:1003800006F1012701EB10461FFA80F8B6F5803F11
:1003900000D3B94614F8010B294600F018F80028DC
:1003A000EBDABBF1000F05D00FB1641E00E054463C
:1003B000CBF80040B9F1000F06D002F0A7FA0221F5
:1003C0000160C81EBDE8F09F48EA0640FAE73A28F7
:1003D00000D2303820F02002412A01D3A2F13700A8
:1003E000884201D34FF0FF307047000001490120DF
:1003F0000870704700000020FEE70000014800F090
:10040000F5B90000D806002030B590F8405001241E
:10041000AC40C56B6C60046863604368102B036874
:1004200003D099600068C26030BD9A600068C16006
:1004300030BD7047102000F0DFBC10B5202000F068
:10044000DBFC402000F0D8FCBDE81040802000F02C
:10045000D3BC000006490020C8610648016941F08C
:1004600004010161016941F0400101617047000030
:100470002007002000200240064A0021D1610649E1
:100480000A6942F002020A614861086940F04000CE
:10049000086170472007002000200240044B002222
:1004A000DA61044A136943F0010313610180704764
:1004B000200700200020024014480022C168CB061B
:1004C000134904D5CA6942F00202CA611022C36806
:1004D0005B0705D5CB6943F00103CB6142F0040211
:1004E000C369DB0707D0CB6943F00403CB61C16963
:1004F00021F00101C161A2F58071013901D0C26012
:100500007047C16921F00101C161704700200240BC
:100510002007002070B5054600F078FD0646114C16
:1005200009E0681C07D025B100F070FD801BA842CF
:1005300001D9032070BDE068C007F2D1E0688006F1
:1005400001D52020E060E068C00605D4E069C0075E
:1005500002D1E068400703D5FFF7AEFF012070BD70
:10056000002070BD002002400146002041292CD00F
:1005700014DC212927D009DC112922D0122926D008
:1005800014292AD0182900D131207047222920D0DF
:10059000242924D02829F8D134207047812922D059
:1005A00007DC422917D044291BD04829F5D1372030
:1005B0007047822919D0842919D08829F8D151206F
:1005C00070474120704742207047432070473320D6
:1005D00070473620704739207047322070473520E9
:1005E00070473820704744207047452070473020BE
:1005F000704700002DE9FF470025234FA9462A46F2
:100600000F21384600F0FDFC0F20009011200190D2
:10061000022003906946384600F0FAFBF020009073
:1006200000200124CDE901046946384600F0F0FBC2
:100630000426B84604FA06F7B9B2404600F0DCFCDE
:1006400008B92F43FDB2761CF6B2082EF2D3A5B13D
:1006500001F0EEFC5FF0000604FA06F7B9B240467E
:1006600000F0CAFC08B92F43FDB2761CF6B2042E86
:10067000F2D32846FFF778FF814602F067FD04B009
:100680004846BDE8F08700000008014001680A689C
:1006900022F00E020A6001680A6822F001020A6074
:1006A00090F84020C36B012101FA02F25A6080F8F1
:1006B0002110002180F82010084670472DE9F05FD6
:1006C00090F821100024022903D004218163012421
:1006D00085E001680A6822F00E020A6001680A6873
:1006E00022F001020A603F4E3E4FB215DFF8F4C01F
:1006F000DFF8F090DFF8ECA0DFF8E8B0DFF8E4E036
:100700000168783F13011502ACF1640CA9F150099E
:10071000AAF13C0AABF1280BAEF1140E4FF480188D
:10072000B14227D9B9420ED0614512D049451DD0FA
:10073000514518D0594518D0714501D1424615E0B0
:10074000294EB14201D1012210E0274E1436B142A8
:1007500001D110220AE0244E2836B14206D0224AA6
:100760003C32914201D11A4600E02A461E49091F37
:100770000A602BE0B94213D0614517D0494522D019
:1007800051451DD059451DD0714501D142461AE051
:10079000B14202D14FF0807215E0134EB14201D147
:1007A000012210E0104E1436B14201D110220AE0AD
:1007B0000D4E2836B14206D00B4A3C32914201D14F
:1007C0001A4600E02A46074980394A60012180F82C
:1007D0002110002180F82010416B01B1884720468C
:1007E000BDE8F09F80000240080402402DE9F05F60
:1007F000C16B0A6801680B68046C4FF0040808FAC2
:1008000004F8844D844E854FDFF814C2DFF814924B
:10081000DFF814A2DFF814B2DFF814E218EA020FCE
:1008200065D05FEA437862D50A68920603D40A6805
:1008300022F004020A60DFF8F0814FF48062016860
:1008400008F1140813011402414524D9A9420DD01E
:10085000B1420FD0B9421AD0614515D0494515D0E3
:10086000514501D1120312E0594501D104220EE095
:10087000714501D140220AE06D4D1435A94206D0E0
:100880006B4A2832914201D11A4600E0224667495C
:10089000091F0A6029E0A94213D0B14215D0B9421C
:1008A00020D061451BD049451BD0514502D14FF4A2
:1008B000800217E0414502D14FF0806212E05945B5
:1008C00001D104220EE0714501D140220AE0584DC9
:1008D0001435A94206D0564A2832914201D11A460F
:1008E00000E022464B4908394A60C16A71E04FF086
:1008F000020808FA04F818EA020F70D05FEA837859
:100900006DD50A68920606D40A6822F00A020A60C7
:10091000012180F82110DFF810814FF40072016886
:1009200008F1140813011402414524D9A9420DD03D
:10093000B1420FD0B9421AD0614515D0494515D002
:10094000514501D1120312E0594501D102220EE0B6
:10095000714501D120220AE0354D1435A94206D057
:10096000334A2832914201D11A4600E022462F49EB
:10097000091F0A6029E0A94213D0B14215D0B9423B
:1009800020D061451BD049451BD0514502D14FF4C1
:10099000001217E0414502D14FF0007212E05945B4
:1009A00001D102220EE0714501D120220AE0204D42
:1009B0001435A94206D01E4A2832914201D11A4666
:1009C00000E02246134908394A60002180F82010CF
:1009D000816A00291CD0BDE8F05F0847FFE70825C1
:1009E000A540154214D01A0712D50A6822F00E024B
:1009F0000A6090F84020C36B012101FA02F25A60AC
:100A0000816380F82110002180F82010016BE0E75D
:100A1000BDE8F09F080002401C0002403000024088
:100A200044000240580002406C00024008040240AA
:100A30001C04024030B560B11C4A03681421934283
:100A400009D21B4A1A44B2FBF1F189000164194929
:100A50000AE0012030BD154A52421A44B2FBF1F1BE
:100A60008900016411490839C163022180F821100D
:100A70001A6843F6F0718A43F0E901142143D0E982
:100A800002452C432143046921434469214384697D
:100A9000214311431960002141628162C1620163F7
:100AA0004163012242770177084630BD08040240C5
:100AB000F8FFFDBF0000024070B5044690F820002A
:100AC000002501280CD0012084F8200094F8216032
:100AD0000020012E06D084F820000225284670BD93
:100AE000022070BD022684F82160A0632068066899
:100AF00026F0010606602046FFF786FCE06A002823
:100B00002068016802D041F00E0106E021F00401E6
:100B100001602068016841F00A01016020680168F5
:100B200041F001010160D9E731B500F06FFA009C96
:100B30000546601C00D0641C00F068FA401BA0420F
:100B4000FAD338BD2DE9F047054626480F46012661
:100B5000017E01290FD00121814601762868DFF846
:100B600088804CF25034022808D0A2462046FFF775
:100B7000D1FCA8B131E00220BDE8F0872046FFF7A4
:100B8000C9FC08BB0120FFF765FC2046FFF7C2FC4B
:100B9000D8F81010064621F00401C8F810101CE027
:100BA0004FF0FF303860AC6811E02046FFF764FC7E
:100BB0005046FFF7AFFCD8F81010060021F00201F4
:100BC000C8F8101001D03C6007E004F50064D5E9D6
:100BD000020100EBC120A042E7D8002189F81810DB
:100BE0003046C9E720070020002002400348016981
:100BF00041F08001016100207047000000200240A8
:100C00002DE9F05F07461C4888460024017E154602
:100C10001E46012909D00121814601764CF2503A45
:100C20005046FFF777FC18B122E00220BDE8F09FA4
:100C3000012F02D0022F00D00427D346DFF83CA0BA
:100C4000220128463146FFF78FFA81B208EB4400B3
:100C5000FFF724FC5846FFF75DFCDAF8102022F07D
:100C60000102CAF8102018B9641CE4B2BC42E7D3F0
:100C7000002289F81820D9E7200700200020024030
:100C800005480169090605D50449416004494160E8
:100C90000020704701207047002002402301674573
:100CA000AB89EFCD2DE9F047054600F0AFF9454C93
:100CB000E168411AB1F5967F43DBE0602846FFF713
:100CC00099FC0646DFF800813038012708F1100949
:100CD00009280AD801F08EFA2760A0682A2208F8AD
:100CE000002009F80060401CA0604FF0020A412E6D
:100CF0000ED00025432E16D0442E24D0324F143F60
:100D0000452E2BD0512E1CD101F074FA256043E002
:100D100001F070FAC4E900A7BDE8F0472A482BA10A
:100D20001038FFF76EBA01F065FA276000204246DE
:100D30004B46A16802E015541D54401C8842FADD60
:100D4000A560BDE8F08701F055FA2760A068401E55
:100D5000A06008F8005009F80050F2E701F04AFAE4
:100D6000194906221031A1F1F000FFF753FA194B8F
:100D7000194E4FF48051C0B10122184600F041F9DC
:100D800000224021304600F03CF914A1C4F800A034
:100D90000D481038FFF735FA7D61BD61FD613D6298
:100DA0007D62BD62FD623D63CAE70022184600F025
:100DB00028F900228021304600F023F90AA1C4F866
:100DC00000A0E5E704000020980600206170206D77
:100DD0006F646500000C014000100140756E6C6F7F
:100DE000636B206661696C00756E6C6F636B20735A
:100DF0007563636573730000044910B50A680242A5
:100E000002D00860FFF74EFF10BD0000140401403F
:100E10002DE9F84FDFF8B8A100220AF1040B1446BF
:100E200001274FF00F090BF1040E00BF0B6807FA02
:100E300004F52B40AB4274D1DFF898C14E68A6EBA5
:100E40000C0866452BD00DDC032E34D005DC36B300
:100E5000012E19D0022E2FD11BE0112E16D0122EEA
:100E60002AD119E0B8F5881F19D006DCB8F5803F03
:100E700015D0B8F5801F1FD111E0B8F5001F0ED0B6
:100E8000B8F5041F18D10AE0CA6815E0CA68121D37
:100E900012E0CA6808320FE0CA680C320CE08A68B7
:100EA0002AB1012A4FF0080203D0456104E0042270
:100EB00002E0056100E00022FF2B01D8064601E0B8
:100EC00000F104064FEA840501D9A5F12005D6F802
:100ED00000C009FA05F82CEA080C02FA05F54CEAFC
:100EE000050CC6F800C04D68ED006AD53A4DAE69F4
:100EF00046F00106AE61AD6924F0030605F0010578
:100F00000095364D06EB050CDCF80850A6074FEAB5
:100F1000167809FA08F6B543314EB04202D10026E0
:100F20001AE04EE02F4EB04201D1012614E02E4EC1
:100F3000B04201D102260FE02C4EB04201D103266F
:100F40000AE02B4EB04201D1042605E0294EB04202
:100F500001D1052600E0062606FA08F62E43CCF855
:100F600008604D68DAF80060ED03554601D51E4370
:100F700000E09E432E604D68AD0305D5DBF80060B0
:100F80001E43CBF8006004E0DBF800509D43CBF833
:100F900000504D68DEF80060ED02754601D51E4335
:100FA00000E09E432E604D68AD0205D5084D0C351E
:100FB0002E681E432E6004E0054E0C3635689D43B6
:100FC0003560641C102CFFF431AFBDE8F88F0000D1
:100FD0000004014000001110001002400000014018
:100FE00000080140000C01400010014000140140C5
:100FF00000180140001C01408068084000D001201A
:1010000070470AB1016170470904FBE701480068B5
:10101000704700003800002070B5040004D094F838
:101020003D00002510B106E0012070BD84F83C5061
:10103000204600F011F9242084F83D002068016862
:1010400021F00101016000F08FFA33492268B0FB02
:10105000F1F15160314A6368934206D94FF49673B7
:1010600059434FF47A73B1FBF3F12368491C1962B9
:10107000616891420BD84900B0FBF1F2C2F30B0258
:10108000042A01D2042019E0B0FBF1F016E0A368B5
:101090009BB301EBC10202EB0112B0FBF2F242F48E
:1010A0008042120530D04BB301EBC10202EB0111BB
:1010B000B0FBF1F040F4804040F400402168C8618A
:1010C000D4E90701084321680860D4E90310084304
:1010D00021688860D4E9050108432168C860206858
:1010E000016841F0010101602564202084F83D0081
:1010F000256384F83E50002070BD00E006E001EB5F
:101100004102B0FBF2F2CCE70120D7E701EB41014D
:10111000B0FBF1F0D0E7000040420F00A0860100D4
:101120002DE9F84F1F4690468A460446DDF8289080
:10113000FFF76CFF064694F83D0020287ED1192366
:10114000012243492046009600F0C1FE00287DD1CF
:1011500094F83C00012879D0012084F83C002068F4
:101160000168C90703D1016841F0010101602068ED
:10117000016821F400610160212084F83D00102005
:1011800084F83E0000252564C4F824806785314832
:10119000E062608D208533464A465146204600F085
:1011A00025FE28B1206C84F83C5004284CD00DE07A
:1011B000206841698069009030E032464946204607
:1011C00000F0FAFE28B1206C042838D00320BDE8D6
:1011D000F88F606A411C6162216800780861608D47
:1011E000401E6085208D401E80B2208521684A699E
:1011F000D24352070BD450B1606A421C626200783D
:101200000861608D401E6085208D401E208532461D
:101210004946204600F034FE0028D4D1208D002815
:10122000CBD154F83D0B016841F4007101602020DE
:1012300004F81E09E57765770020C8E706E0206816
:10124000016841F4007101600120C0E70220BEE79F
:10125000020010000000FFFF00B500680C4985B0D7
:10126000884212D1C02000901220019003200390E8
:1012700069460848FFF7CCFD0748C16941F40011F1
:10128000C161C06900F40010049005B000BD000009
:1012900000540040000C0140001002400248016868
:1012A000491C01607047000038000020074810B555
:1012B000016841F010010160032000F093F8002064
:1012C00000F006F800F018F8002010BD00200240E1
:1012D00010B5044607484FF47A710068B0FBF1F08E
:1012E00000F027FB00222146501E00F05BF8002092
:1012F00010BD00003C000020224808B5816941F083
:1013000001018161816901F001010091C16941F030
:101310008051C161C06900F080500090032000F04E
:1013200061F8002211466FF00B0000F03BF800223C
:1013300011466FF00A0000F035F8002211466FF0F8
:10134000090000F02FF800221146501F00F02AF883
:1013500000221146101F00F025F800221146901EB1
:1013600000F020F800221146501E00F01BF806483D
:10137000416821F0E0614160416841F000714160E5
:1013800008BD0000001002400000014000F01F02F4
:10139000012191404009800000F1E020C0F80011D7
:1013A00070470000F0B40E4B1B680C46C3F30223D9
:1013B000C3F10705042D00D90425191D072901D201
:1013C000002300E0DB1E012606FA05F1491E21403C
:1013D00099409E40761E16403143F0BC00F0FABEA4
:1013E0000CED00E0064900F0070208684FF6FF0325
:1013F000184040EA0220034A10430860704700008A
:101400000CED00E00000FA052DE9F047DFF83C8123
:1014100005460E46D8F8000000F00700B0420CD296
:10142000D8F8001021F007013143C8F80010D8F8AF
:10143000000000F00700B04263D12878444C8007D8
:1014400005D56068A96820F0F0000843606028783E
:10145000C00745D06868012816D02168022816D038
:10146000890700294DDA616821F0030101436160B9
:10147000FFF7CCFD6968074641F2883001290FD09B
:101480000229814619D027E021688903E9E789010B
:10149000E7E700BFFFF7BAFDC11B494501D918E0D6
:1014A00081466068C0F381000128F3D118E000BFD5
:1014B000FFF7ACFDC11B49450BD86068C0F3810044
:1014C0000228F5D10CE000BFFFF7A0FDC11B494584
:1014D00002D90320BDE8F087606810F00C0FF3D14B
:1014E000D8F80010404601F00701B1420BD901685D
:1014F00021F0070131430160006800F00700B042AD
:1015000001D00120E6E72878400705D56068E96842
:1015100020F4E060084360602878000706D5606822
:10152000296920F4605040EAC100606000F03CF896
:101530006168084AC1F30311515CC840064908605C
:101540000020FFF7C5FE0020C4E700000020024095
:1015500000100240684900083C0000200148006873
:10156000704700003C0000200448054900684968B5
:10157000044AC1F30221515CC84070473C0000207E
:10158000001002407849000804480549006849688D
:10159000044AC1F3C221515CC84070473C0000209E
:1015A000001002407849000810B512A385B00FCB97
:1015B0008DE80F0013A0144B006804905A6813487C
:1015C00002F00C0104290FD008290DD1C2F3834485
:1015D000D2031DF8041009D55A6804ABC2F3404287
:1015E0009A5CB0FBF2F0484305B010BD0848484390
:1015F000FAE7000002030405060708090A0B0C0DB0
:101600000E0F1010010200000010024000127A00BC
:1016100000093D002DE9F84F04460078B94DC00798
:1016200048D06868C0F38100012807D06868C0F31B
:101630008100022809D16868C00306D528688003A4
:1016400038D5606800286FD034E06068B0F5803F1E
:101650000BD010B1B0F5A02F11D0286820F4803045
:101660002860286820F4802002E0286840F4803058
:101670002860606888B1FFF7C9FC064609E0286861
:1016800040F480202860F0E7FFF7C0FC801B64284E
:1016900075D828688003F7D50CE0FFF7B7FC06463D
:1016A00005E000BFFFF7B2FC801B6428F0D8286873
:1016B0008003F7D42078944E80074FF001094FF053
:1016C00000083BD5686810F00C0F07D06868C0F3BD
:1016D0008100022809D16868C00306D42868800701
:1016E00014D5206901281FD110E02069B0B1C6F8D7
:1016F0000090FFF78BFC074605E000BFFFF786FC74
:10170000C01B0228C4D828688007F7D528686169FB
:1017100020F0F80040EAC10028600FE0C6F8008021
:10172000FFF774FC074606E0E9E000BFFFF76EFC38
:10173000C01B022823D828688007F7D42078000728
:101740002CD57248A169D9B1C0F80090FFF75EFCB2
:10175000074604E0FFF75AFCC01B02280FD8686A4E
:101760008007F7D56A484FF4FA510068B0FBF1F0F2
:10177000009000BF0098411E0091FAD20EE080E078
:10178000C0F80080FFF742FC074604E0FFF73EFC8C
:10179000C01B022875D8686A8007F7D420784007F4
:1017A00060D5E8690027C00008D4E86940F080509F
:1017B000E861E869012700F0805000905548016811
:1017C000C90513D40168834641F480710160FFF7B5
:1017D0001DFC824606E000BFFFF718FCA0EB0A00E4
:1017E00064284ED8DBF80000C005F5D5E068012874
:1017F0000AD008B1052813D0286A20F00100286219
:10180000286A20F0040002E0286A40F00100286203
:10181000E06841F2883B98B1FFF7F8FB82460BE0A5
:10182000286A40F004002862EEE700BFFFF7EEFBF5
:10183000A0EB0A0159455AD8286A8007F6D50CE072
:10184000FFF7E4FB824605E0FFF7E0FBA0EB0A01AF
:1018500059454CD8286A8007F6D41FB1E86920F0B2
:101860008050E861E06988B36968C1F381010229A9
:1018700045D00228C6F8608004D0FFF7C7FB0446B5
:1018800038E034E0FFF7C2FB074604E0FFF7BEFB99
:10189000C01B02282BD828688001F7D4206AB0F535
:1018A000803F05D16868A16820F400300843686073
:1018B000D4E908010843696821F474110843686099
:1018C000C6F86090FFF7A2FB044606E015E000BFF3
:1018D000FFF79CFB001B022809D828688001F7D578
:1018E0000BE000BFFFF792FB001B022802D9032088
:1018F000BDE8F88F28688001F4D40020F8E70120C3
:10190000F6E700000010024000004242800442421C
:101910003C000020007000404FF0E02104280869DE
:1019200003D020F004000861704740F00400FAE79B
:10193000704710B5401EB0F1807F01D3012010BD6B
:101940004FF0E02460610F21601700F043FC00209D
:10195000A06107202061002010BD10B5FFF7E8FF4F
:1019600010BD10B504460068416994F83920C1F3F0
:10197000C011212A0BD151B1416921F0800141618F
:10198000206B08B1FEF782FE204600F0F1FD2068D2
:10199000416994F83A20C1F38011222A0BD151B148
:1019A000416921F040014161606B08B1FEF76EFEB4
:1019B000204600F0CFFD002010BD704770B50268D2
:1019C00004461068D168536910F00F0F50D003F02F
:1019D000010501F4907635435DD0C20705D0CA05F4
:1019E00003D5E26B42F00102E263420705D5DA0754
:1019F00003D0E26B42F00202E263820705D5DA0708
:101A000003D0E26B42F00402E263020705D5DA0775
:101A100003D0E26B42F00802E263E26B002A33D0AB
:101A2000800604D5880602D5204600F0AAFD20686D
:101A30004069E16BC0F38010090700D428B3204649
:101A400000F088FD2068416949061AD5416921F0F6
:101A500040014161606BA0B11B494163606BFEF7BF
:101A60002DFE002810D0606B416BBDE87040084728
:101A7000830610D58B060ED52046BDE8704000F0D9
:101A800080BD2046FFF799FF70BD2046FFF795FF08
:101A90000020E06370BD030606D50B0604D5204682
:101AA000BDE8704000F070BE4006F3D54806F1D5A1
:101AB000D168204621F04001D160202184F83910FE
:101AC00000F07EF970BD0000B524000870B5040078
:101AD00004D094F83900002510B106E0012070BD53
:101AE00084F83850204600F023F8242084F8390088
:101AF0002068C16821F40051C160204600F08CFDCF
:101B00002068016921F4904101612068416921F058
:101B10002A0141612068C16841F40051C160E56358
:101B2000202084F8390084F83A00002070BD0000BD
:101B300070B506462E4D036800242E49022003226C
:101B400086B0AB4219D1CB6943F48013CB61C9692C
:101B5000039201F480110491C102CDE9001069469D
:101B60002548FFF755F90420CDE9000469462348CC
:101B70000294FFF74DF906B070BD214DAB42FAD18A
:101B8000CB6943F48023CB61C969039201F48021BE
:101B900004912915CDE900101A4D69462846FFF732
:101BA00037F9E814CDE90004694628460294FFF7A6
:101BB0002FF9164D1448C5E900048020C5E90240FC
:101BC0002C616C61AC612846EC61FEF733FF18B103
:101BD000CA210FA000F06DFE756300221146272078
:101BE0006E62FFF7DFFB2720FFF7D0FBC3E70000A3
:101BF000005000400010024000100140001401405D
:101C000000480040000C014030000240D80600208F
:101C10002E2E2F5372632F73746D333266317878A2
:101C20005F68616C5F6D73702E630000F8B50446E9
:101C300090F83A0020283CD1C1B3BAB394F83800E8
:101C4000012836D0012084F83800A162A285002541
:101C5000E563222084F83A00636B17489862636B4F
:101C60001648D862636B16481863606B1346456369
:101C70000846666B216802463046091DFEF71CFFC8
:101C8000206801684168009184F83850C16841F4C7
:101C90008071C1602068416941F0010141612068A3
:101CA000416941F0400141610020F8BDFFE701209A
:101CB000FBE70220F9E700000F2500084B2500088C
:101CC000C5240008704770472DE9F843044690F892
:101CD00039001F4616460D46202850D1A5B19EB1A9
:101CE00094F8380001284AD0012084F838004FF0D9
:101CF0000008C4F83C80212084F83900FFF786F9F9
:101D0000A6848146E68426E00120BDE8F883E08CC5
:101D1000401EE084A0684B46B0F5805F4FF00002A3
:101D20004FF080012046009703D000F05EFDE8B937
:101D30000DE000F05AFDC8B928882168C0F30800FA
:101D40004860206908B16D1C05E0AD1C03E0216806
:101D500015F8010B4860E08C0028D8D14B460022D2
:101D600040212046009700F040FD08B10320CCE759
:101D7000202084F8390084F838800020C5E702204C
:101D8000C3E790F83930202B18D1A9B1A2B190F84F
:101D90003830012B12D001628284C2840021C163D9
:101DA000212280F8392080F838100068C16841F09D
:101DB0008001C160002070470120704702207047F9
:101DC0007047FEE701684A69D24352050CD46FF4AC
:101DD00080624A6104210164002140F8301F202202
:101DE000427301730120704700207047F8B5044624
:101DF000C06A1E460D461746042807D0012805D0A4
:101E000010F5803F02D0206B122804D120680168B1
:101E100041F480710160134600224FF00111204609
:101E2000009600F054F8A0B92069B0F5804F12D0A8
:101E30000620216800EAD51040F0F0000861334622
:101E40003A460E49204600F073F838B1206C042859
:101E500011D00320F8BD05F0FE0000E0E8B22168D3
:101E60000861064933463A46891F204600F060F86B
:101E70000028EBD1F8BD0120F8BD000008000100EA
:101E800070B516460D4604461AE02046FFF79AFF45
:101E900008B1012070BD681C12D025B1FFF7B6F85B
:101EA000801BA8420CD954F8400F40F0200044F8A1
:101EB000100900202060202161732073032070BD71
:101EC00020684069C0434007DFD4002070BD2DE981
:101ED000F0471E4690460D460446C1F30747DDF81D
:101EE000209012E0701C10D02EB1FFF78FF8A0EBFD
:101EF0000900B04209D9002044F8300F2021617355
:101F0000A07320730320BDE8F0872068012F0AD05A
:101F1000806925EA00000004000C06D0002141453C
:101F2000E0D00020EFE74069F3E70121F7E7000088
:101F30002DE9F0479A4691460D46044600264FF09B
:101F40002008C1F307472AE020684069C0434005E4
:101F500012D42068016841F40071016021686FF4B7
:101F60008060486104202064266384F83D8084F802
:101F70003C600120BDE8F087B9F1FF3F0FD0B9F117
:101F8000000F05D0FFF742F8A0EB0A01494506D93A
:101F900044F8306F84F80D8026730320EAE7206848
:101FA000012F07D0D0F8180025EA00000004000C2B
:101FB000E0D0C9E74069F7E770B516460D4604461C
:101FC0001AE02046FFF7FEFE08B1012070BD681C34
:101FD00012D025B1FFF71AF8801BA8420CD954F88B
:101FE000400F40F0200044F810090020206020211C
:101FF00061732073032070BD20684069C0430006F0
:10200000DFD4002070BD00001CB502238DF8040051
:102010004FF47A708DF80510009001AA78210248DB
:10202000FFF77EF81CBD00008404002001F08EB88C
:10203000174810B5816986B041F00401816181695A
:1020400001F004010491816941F008018161806916
:10205000104C00F0080004900022F0212046FEF70A
:10206000D0FFF020009011200190022003906946DB
:102070002046FEF7CDFE0F200090002001900120A9
:10208000029069462046FEF7C3FE06B010BD000070
:1020900000100240000801402DE9F04F394885B09A
:1020A000816941F004018161816901F004010491B9
:1020B000816941F008018161816901F008010491A1
:1020C000816941F010018161816901F01001049181
:1020D000816941F0200181618069DFF8AC9000F0F6
:1020E0002000049000220F214846FEF78AFFDFF807
:1020F0009CA04FF48057002239465046FEF781FFDE
:10210000DFF88CB04FF4E078002241465846FEF7E5
:1021100078FF0F20012500240226CDE90005CDE936
:10212000024669464846FEF773FEF02000901948C3
:10213000CDE9010469464846FEF76AFE009703961A
:10214000CDE9015469465046FEF762FECDF80080A5
:102150000396CDE9015469465846FEF759FE002220
:1021600011460A20FFF71EF90A20FFF70FF9002297
:1021700011461720FFF716F91720FFF707F905B0EA
:10218000BDE8F08F0010024000080140000C014043
:1021900000100140000011100B4810B50949016002
:1021A0000A49416000214FF480428160C0E9031276
:1021B00041618161C1610162FEF72EFF002800D0FC
:1021C000FEE710BD0054004084040020801A060081
:1021D000FEE770470907090E002806DA00F00F0035
:1021E00000F1E02080F8141D704700F1E02080F835
:1021F0000014704710B500F005F8BDE8104000F07D
:1022000043BF000010B50021074C0A46002004EB34
:10221000C1131A54401CC0B28028FAD3491CC9B259
:102220000829F3D310BD0000840000202DE9FF4FE2
:1022300092468146002624E001984C4600EBC607F2
:102240000AEB040819E006FB0A400025A0EB090B85
:10225000802C0CD2402F0AD20D9911F80B00E840C7
:1022600000F001027819C1B2204600F069F86D1C37
:10227000EDB2082DECD3641CE4B2A045E3D8761C83
:10228000F6B203988642D7D3BDE8FF8F10B564201D
:10229000FEF74AFCAE2000F004FB202000F001FB1A
:1022A000102000F0FEFAB02000F0FBFAC82000F089
:1022B000F8FA002000F0F5FA102000F0F2FA4020C1
:1022C00000F0EFFA812000F0ECFAFF2000F0E9FACC
:1022D000A12000F0E6FAA62000F0E3FAA82000F022
:1022E000E0FA3F2000F0DDFAA42000F0DAFAD32073
:1022F00000F0D7FA002000F0D4FAD52000F0D1FA8F
:10230000F02000F0CEFAD92000F0CBFA222000F025
:10231000C8FADA2000F0C5FA122000F0C2FADB2079
:1023200000F0BFFA202000F0BCFA8D2000F0B9FACE
:10233000142000F0B6FABDE81040AF2000F0B1BAAA
:1023400030B5402910D880280ED801F007040123A9
:10235000064DA340C90805EBC111002A0A5C01D053
:102360001A4300E09A430A5430BD00008400002064
:102370002DE9F8410024164688460546802833D8C2
:10238000B8F13F0F30D8012B2AD0022B2CD1174F98
:10239000305D002828D020280AD307EB0010A0F5D4
:1023A000007000900223082241462846FFF73EFFB6
:1023B000641C0835E4B2EDB2EAE720280BD300EB49
:1023C000400007EB4000C038009001230622414640
:1023D0002846FFF72BFF641CAD1DE4B2EDB200E010
:1023E000034F305D0028E8D1BDE8F881784300084C
:1023F000504100087047704710B5FEF74FFFBDE829
:102400001040FFF7AABA30B58FB002250120049022
:1024100000951020059000244FF46010CDE908408D
:1024200007956846FFF7F6F800B1FEE70F20CDE903
:102430000A054FF48060CDE90C4002210AA80E94F1
:10244000FEF7E2FF00B1FEE7FFF788F84FF47A717C
:10245000B0FBF1F0FFF76DFA0420FFF75DFA002200
:102460001146501EFEF79EFF0FB030BD0D480168AB
:1024700041F00101016041680B4A1140416001686F
:102480000A4A11400160016821F48021016041681D
:1024900021F4FE0141604FF41F0181600449C00333
:1024A00008607047001002400000FFF8FFFFF6FED2
:1024B00008ED00E010B5406A0021C185C184FFF736
:1024C0007CFA10BD70B5446A2068406994F83910F0
:1024D000C0F3C0100025212904D118B1E58420469D
:1024E00000F046F82068406994F83A10C0F3801074
:1024F000222904D118B1E585204600F02BF8E06BC5
:1025000040F01000E0632046FFF757FA70BD10B5A9
:102510000146406A09680968890613D40021C1850B
:102520000168CA6822F48072CA6001684A6922F0B0
:1025300001024A6101684A6922F040024A61202191
:1025400080F83A10FFF7BEFB10BD10B5406AFFF7E8
:10255000BAFB10BD0168CA6822F49072CA600168B3
:102560004A6922F001024A61202180F83A1070473E
:102570000168CA6822F0C002CA60202180F83910C0
:10258000704710B590F83A10222901D0022010BDF2
:102590008168B1F5805F11D00169002901681FD001
:1025A000496801F07F03816A4A1C82620B70C18D09
:1025B000491E0904090CC18518D02BE00269816A03
:1025C000002A0268526805D0D2B20A80816A491C8A
:1025D0008162ECE7C2F308020A80816A891CF7E78E
:1025E0004A68816A4B1C83620A70E0E70168CA6826
:1025F00022F02002CA600168CA6822F48072CA60B0
:1026000001684A6922F001024A61202180F83A10EB
:10261000FFF758FB002010BD2DE9F041044600688B
:102620000169E26821F44051114301612169A06808
:102630000843616908432168CA6841F20C639A4300
:102640000243CA6020684169A26921F440711143C4
:1026500041614C4920686425322688423CD1FEF70E
:1026600093FF00EBC00101EB001061688900B0FB33
:10267000F1F7FEF789FF00EBC00101EB0010616884
:10268000B0468900B0FBF1F0B0FBF5F06FF0180137
:10269000484307EB800106EB0110B0FBF5F000F0BA
:1026A000F006FEF771FF00EBC00101EB001061685E
:1026B0008900B0FBF1F0B0FBF5F006EB0016FEF779
:1026C00063FF00EBC00101EB001061688900B0FB03
:1026D000F1F7FEF759FF3BE0FEF746FF00EBC001C4
:1026E00001EB001061688900B0FBF1F7FEF73CFFD9
:1026F00000EBC00101EB00106168B0468900B0FB3F
:10270000F1F0B0FBF5F06FF01801484307EB8001E2
:1027100006EB0110B0FBF5F000F0F006FEF724FF29
:1027200000EBC00101EB001061688900B0FBF1F023
:10273000B0FBF5F006EB0016FEF716FF00EBC0014C
:1027400001EB001061688900B0FBF1F7FEF70CFFA8
:1027500000EBC00101EB001061688900B0FBF1F0F3
:10276000B0FBF5F06FF01801484307EB800108EB70
:102770000110B0FBF5F0216800F00F0030448860D4
:10278000BDE8F0810038014090F83910212901D0CE
:10279000022070478168B1F5805F016A0BD04A1C46
:1027A0000262026809785160C18C491E0904090C53
:1027B000C1840ED017E009880268C1F30801516096
:1027C00001690029016A02D0491C0162ECE7891CF9
:1027D000FBE70168CA6822F08002CA600068C1682D
:1027E00041F04001C160002070472DE9F04198465A
:1027F00017460E460446069D1DE0681C1BD02DB1F1
:10280000FEF704FCA0EB0800A84214D92068C168B8
:1028100021F4D071C1602068416921F0010141615A
:10282000202084F8390084F83A00002084F8380029
:102830000320BDE8F0812068006836EA000004D07B
:102840000020B842D9D00020F3E70120F9E70000CA
:10285000114808B500680168C1F30011B1B1016801
:10286000406800900C48FFF77CF800F0AFFB402276
:102870000A49FDF789FCFDF7B9FD40210748FDF73E
:102880009CFC402205490448FFF7D0F9BDE8084008
:102890000148FFF793B800001805002058050020F4
:1028A000FEE701460020FFF7AFBB01464020FFF7DF
:1028B000ABBBFEE70FB41CB50246002007AC0029F5
:1028C0000BD0491ECDE90021054B6A4621460698EA
:1028D00000F030F8009A002111701CBC5DF814FB68
:1028E000772C00080FB4084B10B504A902AA03986E
:1028F00000F020F8044602A9002000F0C7F92046A5
:1029000010BC5DF814FB00008D2C000800487047D7
:102910004000002002E008C8121F08C1002AFAD1B6
:1029200070477047002001E001C1121F002AFBD14F
:10293000704700002DE9FF4F8BB088460546002602
:1029400006E025280BD0DDE90D1290476D1C761CA2
:1029500028780028F5D10FB03046BDE8F08F00246C
:10296000A146A2460122AE4900E0044315F8013F0A
:10297000203B02FA03F00842F7D128782A2810D029
:102980006FF02F022878A0F13001092915D809EB42
:10299000890102EB410144F0020400EB01096D1CC6
:1029A000F0E758F8041B5FEA010903D544F400542A
:1029B000C9F1000944F002046D1C28782E2817D1B3
:1029C00015F8010F44F004042A280ED06FF02F02EE
:1029D0002878A0F1300109290AD80AEB8A0102EB14
:1029E000410100EB010A6D1CF2E758F804AB6D1CC5
:1029F00028786C280FD006DC4C2817D068280DD01A
:102A00006A2814D104E0742810D07A280FD10DE080
:102A100044F400140AE044F4801401E044F4401447
:102A20006978814202D104F580146D1C6D1C2878F0
:102A3000692865D006DC00288DD0632827D064285B
:102A400006D15DE06E2808D073282AD0752877D08B
:102A5000DDE90D129047761CE0E0C4F30250022835
:102A600009D003280DD0D8F8001004280DD00E602E
:102A700008F10408D2E0D8F80010F217C1E90062AA
:102A8000F6E7D8F800100E80F2E70E70F0E718F8BD
:102A9000041B8DF8001000208DF80100EB4601208A
:102AA00003E058F804BB4FF0FF3061074FF0000718
:102AB00001D40AE07F1C57450DDA8742FADB1BF888
:102AC00007100029F6D106E07F1C8742FCDB1BF8CB
:102AD00007100029F8D1DDE90D23A9EB0700814695
:102AE000214600F0B1F83044C61904E0DDE90D12CA
:102AF0001BF8010B90477F1EF8D22146484688E01C
:102B000058F8040BC4F302514FF00A0B032900D10B
:102B100000B2042900D140B2002802DA40422D213F
:102B200002E0210505D52B218DF82410012104E0B8
:102B300006E0E10710D02021F6E708AF089113E086
:102B400058F8040BC4F302514FF00A0B032900D1CB
:102B500080B2042900D1C0B20021EEE75946FDF74A
:102B600082FB303107F8011D0028F7D1ADEB0700DB
:102B700000F1200B600702D524F4803401E04FF00F
:102B8000010ADA4502DDAAEB0B0000E000208246D4
:102B900000EB0B0108980144A9EB01000A90E00347
:102BA00006D4DDE90D2321460A9800F04DF80644CD
:102BB0004FF0000908E009A911F80900DDE90D123C
:102BC000904709F10109761C08998945F3DBE00378
:102BD0000CD5DDE90D2321460A9800F035F80644AE
:102BE00004E0DDE90D1230209047761CBAF10001B7
:102BF000AAF1010AF5DC05E0DDE90D1217F8010B79
:102C00009047761CBBF10001ABF1010BF4DC0A9894
:102C10002146DDE90D2300F005F806446D1C97E61A
:102C2000092801002DE9F041044600251E461746FB
:102C3000880404D405E039462020B0476D1C641E8A
:102C4000F9D52846BDE8F0812DE9F041044600257C
:102C50001E469046C80301D5302700E0202788048F
:102C600004D505E041463846B0476D1C641EF9D5D1
:102C70002846BDE8F0814A68002A06D00A68531C3D
:102C80000B6010704868401E486070470A68531C0B
:102C90000B6010707047000070B5204800F016FF00
:102CA0006FF00B05002801DA1DA422E01B48642305
:102CB000102220A14038FFF707F823A225A11748CA
:102CC00000F0D4FF002801DA24A412E013486423A2
:102CD000142228A14038FEF7F7FF4EF6602242F298
:102CE00066710E4801F062F82849002848610CDA44
:102CF00027A42046FDF77EFA82B2084864232146C5
:102D00004038FEF7E1FF284670BDBDE8704003483B
:102D100064230B2229A14038FEF7D6BF18050020F6
:102D2000776966695F61705F696E69742065727248
:102D30000A000000776966695F61705F696E697497
:102D4000206F6B0A000000003132333435363738DB
:102D5000000000004D616E75656C00007769666962
:102D60005F61705F7365745F617267206572720A7C
:102D700000000000776966695F61705F7365745F6A
:102D800061726773206F6B0A00000000040000206E
:102D9000776966695F6C697374656E5F616E645FA5
:102DA000776169745F636F6E6E6563745F74696D7C
:102DB000656F7574206572720A000000636F6E6E35
:102DC000656374206F6B0A002DE9F04192B04021D9
:102DD00001A8FDF7F2F941F270705D4C009011AB63
:102DE00001AA5C48616900F08DFF01AA119B594856
:102DF000616900F0F3FE072257A101A8FDF70AFA66
:102E000000286FD156A101A8FDF7E2F9401D20630B
:102E100020215548FDF7D1F90020534B03E0195408
:102E2000521C401C2263226B11782C2901D03B29B3
:102E3000F5D107224DA14C48FDF7ECF9454F00268E
:102E4000DFF830816C3707F1140590B108224AA1F0
:102E50004548FDF7DFF9002876D14AA101A8FDF722
:102E6000B7F9C01D20637E64BE64FE6400203E6529
:102E70003FE046A101A8FDF7ABF9001D20633548EE
:102E800020218030FDF799F9002003E02954521CDD
:102E9000401C2263226B11782C2901D03B29F5D1EB
:102EA0003CA101A8FDF794F9C01D20637E63BE63B9
:102EB000FE6300203E6405E02B18521C83F82010AE
:102EC000401C2263226B11782C2901D03B29F3D1BD
:102ED000204950228031404600F002F9642310223C
:102EE0002EA12DE030E02B18521C83F83010401C2E
:102EF0002263226B11782C2901D03B29F3D12CA11C
:102F000001A8FDF765F9C01D20637E65BE65FE65FD
:102F100000203E6605E02B18521C83F84010401C30
:102F20002263226B11782C2901D03B29F3D1094966
:102F300050228031404600F0D3F8642310221EA1B5
:102F400004484038FEF7C0FE12B0BDE8F081000032
:102F5000040000201805002041503A66756E630099
:102F600066756E633D000000B80600204C4F47496F
:102F70004E464F0000D0030857494649494E464F38
:102F80000000000061706E616D653D007573723DFB
:102F9000000000007061737377643D0073657420F6
:102FA0007573657220737563636573730000000049
:102FB0006170706173733D00736574207769666931
:102FC00020737563636573730000000000487047E9
:102FD000440000202DE9FF5F9B46109E0E9D009847
:102FE000002458B169B1002A0BDD92B2FEF7C9FE88
:102FF00038B16FF0350004B0BDE8F09F6FF03600D7
:10300000F9E7BBF1000F14D0002D12DD002E10DB0C
:103010000F9870B1DFF868904FF0000889F80080D1
:1030200040273A4617490098FEF700FEC246B846C8
:1030300015E00020DFE799F800004F4658B111482D
:103040000F99FDF7C5F860B987F800A042460D4911
:103050000098FEF7EBFD0120FDF766FD641CB4420D
:10306000E9DBB44202D16FF03200C4E7402D00D951
:1030700040252A4603495846FDF786F82046BAE718
:1030800000000020440000202DE9F0410E4F0024F4
:1030900004F1B000C0B2FFF704FC0020FFF701FC10
:1030A0001020FFF7FEFB002507EBC416705DFFF74D
:1030B000FCFB6D1CEDB2802DF8D3641CE4B2082C2F
:1030C000E6D3BDE8F08100008400002010B50023A5
:1030D00002E0C45CCC545B1C9342FADB002010BDC0
:1030E000F0B5064685B00F461446900707D0E017A6
:1030F00004EB907020F00300201A141A241DFDF731
:10310000BFFD0020019000900121CDE903616946D7
:1031100001A8FDF717FD10B16FF00B0411E00025B9
:10312000E01704EB907408E057F8252006EB8501C2
:10313000D3170220FDF764FD6D1CB5EBA40FF3DB84
:103140000024FDF753FD05B02046F0BD174810B52B
:10315000816986B041F004018161816901F0040157
:103160000491816941F0080181618069104C00F08F
:103170000800049000220F212046FDF742FF0F2097
:103180000090112001900220039069462046FDF72F
:103190003FFEF02000900748019001200290694610
:1031A0002046FDF735FE06B010BD000000100240BD
:1031B000000801400000211008B5FEF777F8FFF77E
:1031C00022F9FEF769FF5C48416941F00101416164
:1031D0004069002200F00100009011460D20FEF72A
:1031E000E1F80D20FEF7D2F8554854494FF4E13785
:1031F00000240160C0E901740C26C460C0E90446E3
:103200008461C461FEF762FC00B1FEE74C4D4D489D
:1032100040352860C5E90174EC60C5E90446AC613D
:103220002846EC61FEF752FC00B1FEE7FEF7B4FF62
:10323000FEF7FCFEFFF72AF8012211034248FDF7D2
:10324000E0FE424E012240213046FDF7DAFE012227
:1032500080213046FDF7D5FE012211023046FDF7F0
:10326000D0FE2868C16841F01001C1603449402295
:103270008031A1F14000FEF7D9FC354D40F2E370FA
:103280005021A8610720E86111202862102068629F
:103290002620C5E90A042A48C030FCF78EFF2849D9
:1032A0005022C0312B48FFF711FF2548C030FCF7F2
:1032B000A1FFC8B12248E030FCF79CFFA0B1204834
:1032C000F030FCF797FF78B12348FCF793FF58B133
:1032D00000F0BEF80646042003274FF47A782861F0
:1032E0006868012807D00DE0FFF7D6FC04462046A9
:1032F000FFF76AFDFBE7FFF7CFFC2F6106466C6026
:10330000FFF762FD304600F0B9FA286860B1012885
:103310000DD00228E4D100F081FB00F06BFB4046A9
:10332000FDF702FC2C60DBE700F018F801E000F08C
:1033300073F800F05FFBD3E700100240005000403C
:10334000D804002000480040000C0140001001405B
:103350000400002000D00308D805002010B5174C49
:103360008AB017A1206A0090D4E9062301A8FFF7CC
:10337000B9FAE06A0090D4E9092317A105A8FFF77C
:10338000B1FA0021022301AA0846FEF7F1FF022349
:1033900005AA10210020FEF7EBFF022314A2202132
:1033A0000020FEF7E5FF022316A240210020FEF7D1
:1033B000DFFFFFF769FE0AB010BD00000400002027
:1033C00020202020253032642D253032642D2530F8
:1033D000326420202000000020202020253032648C
:1033E0003A253032643A2530326420202000000033
:1033F00020534D4152544C4F434B4D41524B494940
:10340000000000005749464920202020202020208D
:10341000202020200000000010B5022306A2102169
:103420000020FEF7A5FF0223084A20210020FEF716
:103430009FFFFFF729FE10BD2020456E74657220A6
:1034400070617373776420200000000098060020EC
:103450002DE9F041B2B0B84800F066FD6FF00B08FE
:10346000002801DAB5A483E0B34864230822B9A197
:103470004038FEF729FCB04AAF48C032A2F1100133
:1034800000F0CAFD002801DAB5A471E0AA4864235F
:103490000622BAA14038FEF717FC42F25273B9A2D5
:1034A000BCA1A54800F090FC002801DABAA45FE0B6
:1034B000A14864230B22BFA14038FEF705FC402140
:1034C00002A8FCF77AFE402112A8FCF776FEBC4861
:1034D0000025A0F1CC0345608560C560A0F1EC0239
:1034E0000561B8A122A8FFF7FDF922A912A8FCF7EF
:1034F00088FE12A8FCF77EFE4FF496764027CDE9B1
:103500000076024602AB12A98B4800F0C3FD0446C8
:1035100002A8FCF76FFE82B28748642302A94038F4
:10352000FEF7D2FB002C01DAAFA421E0A44802A9E7
:10353000001DFCF766FEB64C02204021206012A858
:10354000FCF73BFE402102A8FCF737FEB1A112A810
:10355000FCF757FE12A8FCF74DFECDE900760246B7
:1035600002AB12A9744800F095FD07000ED5AFA478
:103570002046FCF73FFE82B26F4864232146403864
:10358000FEF7A2FB404632B0BDE8F0810922B1A1AE
:1035900002A8FCF73FFE00287CD1DFF89C810026C2
:1035A00008F16C08AEA1C8F86450C8F86850C8F8B3
:1035B0006C5002A8C8F87050FCF70AFE801C08F195
:1035C0006402206303E09055491C761C2163216B43
:1035D00008782C2801D03B28F5D179489C38FCF795
:1035E00028FEA061C8F87450C8F87850C8F87C501C
:1035F00000269CA102A8C8F88050FCF7E9FD801CB9
:103600006F4A20638C3A03E09055491C761C216375
:10361000216B08782C2801D03B28F5D168488C38DC
:10362000FCF707FEDFF89881E061A8F1800800262A
:10363000C8F80450C8F80850C8F80C508AA102A86D
:10364000C8F81050FCF7C4FD801C08F10402206388
:1036500003E09055491C761C2163216B08782C28C7
:1036600001D03B28F5D156487C38FCF7E2FD2062BA
:10367000C8F81450C8F81850C8F81C5000267BA190
:1036800002A8C8F82050FCF7A3FD801C4C4A206318
:103690006C3A04E04EE09155401C761C20630178A2
:1036A0002C2901D03B29F6D145486C38FCF7C1FDE7
:1036B0006062C8F82450C8F82850C8F82C5000267A
:1036C0006BA102A8C8F83050FCF782FD001D3C4AEF
:1036D00020635C3A03E09155401C761C206301781E
:1036E0002C2901D03B29F6D135485C38FCF7A1FDE7
:1036F000A062C8F83450C8F83850C8F83C500026CA
:103700005DA102A8C8F84050FCF762FD801C2C4A5D
:1037100020634C3A03E09055491C761C2163216BD1
:1037200008782C2801D03B28F5D125484C38FCF7E7
:1037300080FDE062384626E7180500207769666953
:103740005F73746174696F6E5F696E69742065720E
:10375000720A0000696E6974206F6B0A0000000035
:10376000776966695F73746174696F6E5F6A6F69A8
:103770006E5F6170206572720A0000006170206FD8
:103780006B0A00003130362E31322E3231362E3671
:103790003500000054435000776966695F737461B7
:1037A00074696F6E5F636F6E6E65637420657272AD
:1037B0000A000000636F6E6E656374206F6B0A0011
:1037C00084060020534C325345523A66756E633D71
:1037D0006C6F672C7573723D25732C7061737377F2
:1037E000643D25733B000000776966695F7374610F
:1037F00074696F6E5F73656E645F726563765F6C2C
:103800006F675F74696D656F7574206572720A0009
:1038100004000020534C325345523A66756E633DA6
:1038200067657474696D653B0000000077696669BF
:103830005F73746174696F6E5F73656E645F7265E8
:1038400063765F74696D5F74696D656F757420650B
:1038500072720A00524553503A74696D6500000057
:10386000593D00004D3D0000443D0000483D000032
:103870006D696E3D00000000533D00002DE9F041F0
:10388000A2B0402102A8FCF798FC402112A8FCF746
:1038900094FC3FA112A8FCF7B4FC12A8FCF7AAFC08
:1038A0004FF496724021CDE90012024602AB12A9F4
:1038B0003C4800F0EFFB3CA102A8FCF789FC3C4C23
:1038C000401D402120633B48FCF777FC0020394B2A
:1038D00003E01954521C401C2263226B11782C29DE
:1038E00001D03B29F5D10422324933A0FCF792FCE8
:1038F00000283CD004222F4931A0FCF78BFC324F2A
:103900004FF48056022530B106222A492FA0FCF739
:1039100081FC08B32BE0002231463846FDF771FBED
:10392000DFF8B080002280214046FDF76AFB214885
:1039300029A14030FCF765FC4FF47A702560FDF753
:10394000F3F8012231463846FDF75BFB0122802166
:103950004046FDF756FB0AE0012231463846FDF7A6
:1039600050FB14481FA14030FCF74BFC256002A817
:10397000FCF740FC82B20B48642302A94038FEF7F2
:10398000A3F96420FDF7D0F822B0BDE8F081000073
:10399000534C325345523A66756E633D67657463A6
:1039A0006D643B0018050020524553503A0000005A
:1039B00004000020480600204E554C4C000000003A
:1039C0006C6F636B00000000000C0140756E6C6F43
:1039D000636B000000100140756E6C6F636B656473
:1039E000000000006C6F636B207375636365737315
:1039F0000000000010B54FF47A70FDF795F8064806
:103A0000C16A491CC1623C2904D10021C162816A9A
:103A1000491C816210BD00000400002010B5FEF7B3
:103A2000E9FB0223174A10210020FEF7A1FCFFF753
:103A30002BFB0E22134914A0FCF7ECFB164CA8B18B
:103A40000B22104915A0FCF7E5FB60B10F220D49D0
:103A500015A0FCF7DFFB70B10F220A4916A0FCF796
:103A6000D9FB00280CD10122402106E001221103DC
:103A70001548FDF7C6FA012280212046FDF7C1FA5C
:103A800010BD000088060020756E6C6F636B20739C
:103A9000756363657373000000100140756E6C6F91
:103AA000636B206661696C002072657365742073B6
:103AB00075636365737320002077726F6E67206F84
:103AC0006C64706173732000000C01402DE9F041BB
:103AD00080461BA694B03046FCF78CFB024640257E
:103AE00032241BA00095CDE9010403AB31464046CA
:103AF000FFF770FA00281FDA18A71CA63846FCF753
:103B000079FB02461CA00095CDE9010403AB3946C0
:103B10004046FFF75FFA3046FCF76CFB024616A002
:103B20000095CDE9010403AB31464046FFF752FA58
:103B300040F6B830FCF7F8FF14B00020BDE8F08183
:103B400041542B43574D4F44453F0D0A00000000A0
:103B50002B43574D4F44453A3200000041542B430C
:103B6000574D4F44453D320D0A00000041542B5241
:103B700053540D0A000000004F4B000010B5A4B0D4
:103B8000040001D0002903DC6FF00B0024B010BD4D
:103B90000B460CA2402103A8FEF78CFE03A8FCF7FD
:103BA00029FB02464FF4FA630BA140208DE80B007D
:103BB00013AB03A92046FFF70DFA0028E6DB00202F
:103BC000E4E7000041542B434950534552564552B7
:103BD0003D312C25640D0A004F4B0000F0B5A3B019
:103BE0001C461546070004D01DB1002C01DD00293C
:103BF00003DA6FF00B0023B0F0BD0B4613A2402197
:103C000003A80094FEF756FE03A8FCF7F3FA024659
:103C10004026142012A10096CDE9011013AB03A990
:103C20003846FFF7D7F90028E5DB4FF4FA700DA10D
:103C30000096CDE9011013AB224629463846FFF71E
:103C4000C9F90028D7DB0020D5E7000041542B43F9
:103C5000495053454E443D25642C25640D0A00000F
:103C60003E00000053454E44204F4B0070B5A4B0B9
:103C7000050018A42BD051B34AB30B46009219A2E9
:103C8000402103A8FEF716FE03A8FCF7B3FA02468C
:103C9000402640F6B8301AA10096CDE9011013ABCA
:103CA00003A92846FFF796F900280EDB2046FCF70B
:103CB000A1FA0246322012A10096CDE9011013AB01
:103CC00021462846FFF786F9002024B070BD6FF02A
:103CD0000B00FAE741542B4349504D55583D310DE7
:103CE0000A00000041542B43575341503D22257395
:103CF000222C222573222C362C320D0A00000000C3
:103D00004F4B000070B594B01D461899144610B37F
:103D100015A24023CDE900320291002203AB1146E7
:103D2000FFF758F9002814DB10A103A8FCF750FA9C
:103D3000A0B1C01CFCF78AFA064628600CA103A8B3
:103D4000FCF746FA68B1411C32462046FCF71CFAE3
:103D5000002014B070BD6FF00B00FAE76FF00D009B
:103D6000F7E76FF00F00F4E72B4950442C000000F8
:103D70003A00000000B593B080B10AA24023CDE91B
:103D800000320291002203AB1146FFF723F900280D
:103D900002DB9DF80C00303813B000BD6FF00B0053
:103DA000FAE70000434F4E4E4543540070B51446A9
:103DB0000546FFF7E3FE002805DB21462846BDE85F
:103DC0007040FFF7D7BF70BD2DE9F043A3B01C468C
:103DD000154688465FEA00091FD0B8F1000F1CD0D5
:103DE000DDB1D4B11BA103A8FCF70BFA03A8FCF7C3
:103DF00001FA024640274FF4FA5619A00097CDE980
:103E0000010613AB03A94846FFF7E4F8002807DAD8
:103E10006FF0180023B0BDE8F0836FF00B00F9E7F6
:103E2000CDE90054434610A2402103A8FEF742FD0D
:103E300003A8FCF7DFF9024612A00097CDE90106BE
:103E400013AB03A94846FFF7C5F80028E2DB0020C2
:103E5000E0E7000041542B43494653520D0A00004D
:103E60002B43494653523A0041542B434950535433
:103E70004152543D222573222C222573222C256485
:103E80000D0A00004F4B000010B5A4B0040017D07D
:103E90000DA2402103A8FEF70DFD03A8FCF7AAF927
:103EA0000246C8230CA140208DE80B0013AB03A9E8
:103EB0002046FFF78FF8002800DB002024B010BD5B
:103EC0006FF00B00FAE7000041542B434950434C7C
:103ED0004F53450D0A0000004F4B000010B5A4B031
:103EE000040016D00CA2402103A8FEF7E3FC03A8AF
:103EF000FCF780F902464FF4FA630AA140208DE8EE
:103F00000B0013AB03A92046FFF764F8002024B090
:103F100010BD6FF00B00FAE741542B43575141504D
:103F20000D0A00004F4B00002DE9F041804627A507
:103F300094B02AA72DA62846FCF75CF90246402437
:103F40004FF4FA702DA10094CDE9011003AB29467E
:103F50004046FFF73FF82CA53046FCF74BF90246E8
:103F60004FF448702BA10094CDE9011003AB31460A
:103F70004046FFF72FF82846FCF73CF9024625A0FB
:103F8000CDE9004040F6B83603AB294602964046DC
:103F9000FFF720F83046FCF7C7FD3846FCF72AF952
:103FA00002464FF47A701BA10094CDE9011003ABD7
:103FB00039464046FFF70EF84046FFF765FF40469A
:103FC000FFF78CFF14B00020BDE8F08141542B4373
:103FD000574D4F44453F0D0A0000000041542B430C
:103FE00049504D55583D300D0A00000041542B43B7
:103FF000574D4F44453D310D0A0000002B43574DAE
:104000004F44453A3100000041542B5253540D0A9D
:10401000000000004F4B000010B5A4B004001DD0FC
:10402000E1B1DAB10B46009211A2402103A8FEF7DC
:1040300041FC03A8FCF7DEF8024641F2883312A1E6
:1040400040208DE80B0013AB03A92046FEF7C2FF0A
:10405000002806DA6FF00D0024B010BD6FF00B00E1
:10406000FAE74FF4AF70FCF75FFD0020F4E70000C3
:1040700041542B43574A41503D222573222C22257F
:1040800073220D0A000000005749464920474F544B
:10409000204950002DE9F047B4B09A46DDE93C597B
:1040A00014460F465FEA000804D01FB1002C01DD62
:1040B000802D04DD6FF0090034B0BDE8F0871346B1
:1040C0001BA2402123A8FEF7F5FB23A8FCF792F8DA
:1040D000802632211AA20096CDE90121024603ABC7
:1040E00023A94046FEF776FF002802DA6FF00A00A7
:1040F000E2E714A1CDE9006103AB2246CDF80890B8
:1041000039464046FEF766FF002802DA6FF00B00E2
:10411000D2E70EA103A8FCF75BF830B1411C2A4698
:104120005046FCF731F80020C6E76FF00C00C3E7FB
:1041300041542B43495053454E443D25640D0A00DC
:104140003E0000002B4950442C0000003A000000C3
:104150000000000000000000002F00000000070029
:10416000070000147F147F1400242A7F2A120062A3
:10417000640813230036495522500000050300004F
:1041800000001C224100000041221C000014083ED7
:1041900008140008083E0808000000A0600000089D
:1041A00008080808000060600000002010080402F1
:1041B000003E5149453E0000427F400000426151AF
:1041C0004946002141454B31001814127F10002749
:1041D00045454539003C4A4949300001710905030C
:1041E00000364949493600064949291E000036363D
:1041F00000000000563600000008142241000014A0
:10420000141414140000412214080002015109067C
:1042100000324959513E007C1211127C007F4949FD
:104220004936003E41414122007F4141221C007F2E
:1042300049494941007F09090901003E4149497A3C
:10424000007F0808087F0000417F410000204041B6
:104250003F01007F08142241007F40404040007F22
:10426000020C027F007F0408107F003E4141413E66
:10427000007F09090906003E4151215E007F0919AE
:1042800029460046494949310001017F0101003FAB
:104290004040403F001F2040201F003F4038403F2B
:1042A000006314081463000708700807006151498F
:1042B000454300007F41410000552A552A55000022
:1042C00041417F00000402010204004040404040A0
:1042D000000001020400002054545478007F484438
:1042E000443800384444442000384444487F00386F
:1042F0005454541800087E0901020018A4A4A47C98
:10430000007F080404780000447D40000040808461
:104310007D00007F102844000000417F4000007CA9
:1043200004180478007C08040478003844444438B5
:1043300000FC242424180018242418FC007C080401
:10434000040800485454542000043F444020003CDA
:104350004040207C001C2040201C003C4030403C61
:10436000004428102844001CA0A0A07C00446454F1
:104370004C44141414141414000000000000000035
:104380000000000000000000000000F80000000035
:10439000000000333000000000100C06100C060076
:1043A000000000000000000040C07840C0784000DD
:1043B000043F04043F040400007088FC083000003F
:1043C000001820FF211E0000F008F000E018000097
:1043D00000211C031E211E0000F008887000000050
:1043E0001E2123241927211010160E0000000000A2
:1043F0000000000000000000000000E018040200BF
:10440000000000071820400000020418E00000002F
:104410000040201807000000404080F0804040002D
:104420000202010F01020200000000F00000000083
:104430000101011F01010100000000000000000057
:1044400080B07000000000000000000000000000CC
:104450000001010101010101000000000000000055
:1044600000303000000000000000000080601804F0
:10447000006018060100000000E010080810E000CD
:10448000000F102020100F00001010F80000000096
:104490000020203F202000000070080808887000DD
:1044A000003028242221300000300888884830005D
:1044B0000018202020110E000000C02010F800007D
:1044C00000070424243F240000F808888808080016
:1044D0000019212020110E0000E01088881800002B
:1044E000000F112020110E0000380808C8380800FD
:1044F0000000003F0000000000708808088870007D
:10450000001C222121221C0000E010080810E000FD
:104510000000312222110F00000000C0C000000086
:1045200000000030300000000000008000000000AB
:1045300000008060000000000000804020100800A3
:10454000000102040810200040404040404040006C
:104550000404040404040400000810204080000047
:104560000020100804020100007048080808F0004C
:104570000000003036010000C030C828E810E0001C
:104580000718272423140B000000C038E0000000A7
:10459000203C23020227382008F888888870000011
:1045A000203F202020110E00C030080808083800E5
:1045B000071820202010080008F808080810E0005C
:1045C000203F202020100F0008F88888E8081000FD
:1045D000203F20202320180008F88888E8081000D1
:1045E000203F200003000000C03008080838000009
:1045F00007182020221E020008F808000008F8080A
:10460000203F210101213F20000808F80808000090
:104610000020203F2020000000000808F8080800C3
:10462000C08080807F00000008F888C0281808003B
:10463000203F20012638200008F808000000000074
:10464000203F20202020300008F8F800F8F808006B
:10465000203F003F003F200008F830C00008F80865
:10466000203F200007183F00E01008080810E00075
:104670000F10202020100F0008F808080808F0008C
:10468000203F210101010000E01008080810E000AF
:104690000F18242438504F0008F888888888700044
:1046A000203F2000030C30200070880808083800E4
:1046B0000038202121221C00180808F808081800DA
:1046C0000000203F2000000008F808000008F8085B
:1046D000001F202020201F000878880000C838080C
:1046E000000007380E010000F80800F80008F80084
:1046F000033C0700073C030008186880806818081E
:1047000020302C03032C30200838C800C83808009B
:104710000000203F2000000010080808C8380800EA
:104720002038262120201800000000FE020202008E
:104730000000007F40404000000C30C0000000003E
:10474000000000010638C00000020202FE00000066
:10475000004040407F00000000000402020204000C
:104760000000000000000000000000000000000049
:104770008080808080808080000202040000000031
:104780000000000000000000000080808080000029
:104790000019242222223F2008F800808000000017
:1047A000003F112020110E000000008080800000DA
:1047B000000E112020201100000000808088F800E9
:1047C000000E112020103F2000008080808000001B
:1047D000001F222222221300008080F0888888187F
:1047E0000020203F2020000000008080808080008A
:1047F000006B94949493600008F80080808000001F
:10480000203F210000203F200080989800000000F9
:104810000020203F20200000000000809898000029
:1048200000C08080807F000008F800008080800049
:10483000203F24022D302000000808F8000000006E
:104840000020203F20200000808080808080800029
:10485000203F20003F20003F8080008080800000BB
:10486000203F210000203F20000080808080000049
:10487000001F202020201F0080800080800000007A
:1048800080FFA12020110E000000008080808000A9
:10489000000E112020A0FF8080808000808080009A
:1048A00020203F21200001000000808080808000C7
:1048B0000033242424241900008080E0808000003C
:1048C0000000001F20200000808000000080800089
:1048D000001F202020103F208080800000808080EA
:1048E00000010E300806010080800080008080807A
:1048F0000F300C030C300F0000808000808080009F
:104900000020312E0E3120008080800000808080C9
:1049100080818E7018060100008080808080800079
:104920000021302C2221300000000000807C020297
:1049300000000000003F404000000000FF000000B9
:1049400000000000FF0000000002027C8000000068
:104950000040403F00000000000601010202040484
:104960000000000000000000000000000000000047
:104970000102030406070809000000000102030405
:104980000040404040404040404041414141414062
:104990004040404040404040404040404040404017
:1049A00040050202020202020202020202020202A6
:1049B00002202020202020202020200202020202AB
:1049C0000202909090909090101010101010101003
:1049D000101010101010101010101010020202020F
:1049E0000202888888888888080808080808080853
:1049F000080808080808080808080808020202024F
:104A00004000000081490008284A000800000020FA
:104A100044000000142900086C4A000844000020EB
:104A2000FC0A00002429000800000000000000002B
:104A30000000000000000000000000000000000076
:104A40000000000000000000000000000000000066
:104A50000000000000000000000000000000000056
:0C4A60000000000000A24A04000000005A
:0400000508000131BD
:00000001FF
